:020000040800F2
:10000000488900200D0200081502000817020008A8
:10001000190200081B0200081D0200080000000071
:100020000000000000000000000000001F020008A7
:100030002102000800000000230200082502000839
:1000400027020008270200082702000827020008EC
:1000500027020008270200082702000827020008DC
:1000600027020008270200082702000827020008CC
:100070002702000827020008270200088D05000853
:10008000270200082702000827020008B51C000804
:100090009D1D00082702000827020008270200080B
:1000A000270200082702000827020008270200088C
:1000B000270200082702000827020008270200087C
:1000C000270200082702000827020008270200086C
:1000D00027020008F51A0008270200082702000876
:1000E0002702000827020008991C000827020008C0
:1000F000270200082702000827020008270200083C
:10010000270200082702000827020008270200082B
:10011000270200082702000827020008270200081B
:10012000270200082702000827020008270200080B
:1001300000F002F800F05CF80AA090E8000C82449D
:100140008344AAF10107DA4501D100F051F8AFF27A
:10015000090EBAE80F0013F0010F18BFFB1A43F0A5
:1001600001031847541F0000741F00000A444FF099
:10017000000C10F8013B13F0070408BF10F8014B06
:100180001D1108BF10F8015B641E05D010F8016B4B
:10019000641E01F8016BF9D113F0080F1EBF10F8AF
:1001A000014BAD1C0C1B09D16D1E58BF01F801CBD2
:1001B000FAD505E014F8016B01F8016B6D1EF9D555
:1001C0009142D6D37047000000230024002500266A
:1001D000103A28BF78C1FBD8520728BF30C148BFAA
:1001E0000B6070471FB5AFF300801FBD10B510BD89
:1001F00000F031F81146FFF7F5FF01F04DFE00F079
:100200004FF8FFF7F3FF01F0DFFD000009488047DA
:1002100009480047FEE7FEE7FEE7FEE7FEE7FEE7E8
:10022000FEE7FEE7FEE7FEE704480549054A064B00
:1002300070470000851A000831010008488300203B
:100240004889002048850020488500207047704775
:10025000704770477047754600F028F8AE460500B5
:100260006946534620F00700854618B020B5FFF7D1
:10027000DBFFBDE820404FF000064FF000074FF0D5
:1002800000084FF0000B21F00701AC46ACE8C009B4
:10029000ACE8C009ACE8C009ACE8C0098D467047BD
:1002A0000446AFF300802046FFF7ABFF00487047DD
:1002B000E8820020C1B2000A40EA01207047000035
:1002C00070B51A4C1A4D1B4E2AE047F6FF70C5F860
:1002D000440C308800F00F002070C0B205EB8000A5
:1002E000D0F8001C89B20A0409D5D0F8001C40F6E9
:1002F0008F7289B21140C0F8001C0F480AE009064D
:100300000ED5D0F8001C48F60F7289B21140C0F823
:10031000001C0A48217800EB810050F8040C80474B
:10032000D5F8440C30800004CFD470BD3E000020CE
:10033000005000407A000020980000207C0000203F
:100340002DE9F05F4BF68F7848F6BF79564F40F6AF
:100350008F7A564E48F60F7B554C9DE047F6FF705E
:10036000C4F8440C088800F00F003070C0B20028B8
:100370006AD104F540642068C0F301304FEA0030D0
:1003800038802068C0F301104FEA001078802068A0
:1003900080B200EA080080F400502060206880B23B
:1003A00000EA090080F0200020600888A4F540647D
:1003B000C00604D5D4F8000C80B201061FD5D4F8CD
:1003C000000C80B200EA0B00C4F8000C00F0AEFC98
:1003D0002CE0890401D580F40050C4F8000CD4F856
:1003E000000C798880B200EA0900CA0629D489067F
:1003F00001D580F02000C4F8000CBDE8F09F010595
:1004000009D5D4F8000C80B200EA0A00C4F8000C48
:1004100001F08CF80AE000043ED5D4F8000C80B25C
:1004200000EA0A00C4F8000C00F07CFDD4F8000CCF
:10043000398880B200EA0800CA04CAD580F4805026
:10044000C7E780F01000D2E704EB8000D0F8001C72
:100450008DB229040DD5D0F8001C89B201EA0A0139
:10046000C0F8001C1348317800EB810050F8040CF0
:100470008047280610D5307804EB8000D0F8001CA7
:1004800089B201EA0B01C0F8001C0B48317800EB7F
:10049000810050F8040C8047D4F8440C07490880C8
:1004A00000043FF55BAFA8E74E0000203E000020AF
:1004B00000500040980000207C0000207A000020BE
:1004C000084901EB8000D0F8001C490409D5D0F898
:1004D000001C48F68F7289B2114041F48041C0F887
:1004E000001C704700500040084901EB8000D0F824
:1004F000001C490609D5D0F8001C48F68F7289B255
:10050000114041F04001C0F8001C7047005000400D
:10051000054901EB8000D0F8001C48F68F6289B2D3
:100520001140C0F8001C70470050004010B501F0A9
:1005300065FC00F08DFBBDE8104001F0C9BC000077
:1005400010B50E4C0C48618800EB81010C484166E7
:100550000221C16542F29351816501F075FC0121D0
:10056000084800F087FB012020700146BDE81040DC
:10057000054800F003BB00004401002014000020E7
:1005800000000240003800400008014010B54FF460
:10059000803000F029F8114900208865104C41F6A0
:1005A000FF726088904202D2401C80B200E00020BE
:1005B000A288904205D101F08BFCA068401CA0608D
:1005C00010BD60800748628800EB82004866022008
:1005D000C86542F29350886510BD000000000240DB
:1005E00014000020440100200349C20002D5C1F8D4
:1005F0000404704748607047000002402DE9F05F36
:10060000DFF89890DFF89880D9F800104FF0300AA2
:10061000088A0E7A01F11004B0B9042E14D12149D0
:10062000087801280BD1204A002012681F4B92B293
:1006300003EB42025060A8F800A0087029E00726EA
:100640001021A8F8001024E0A5880426A84200D9AB
:100650000226854200D90546A8B2A1680746884708
:100660008346002000F0C6FA01463A46584601F09B
:1006700097FB3946002000F0C1FE20880C49401B42
:100680002080608828446080A8F800A04FF4405083
:100690000880D9F800000672BDE8F09F40000020F5
:1006A000500000203A000020505C004000600040F4
:1006B0004E0000202DE9F047234EDFF8909034687B
:1006C0004FF0300834F8100FA168B1B108B3A58815
:1006D000854200D90546A8B2074688478246208849
:1006E000401B2080608828446080002000F072FA5F
:1006F00001463A46504600F033FC208848B1144980
:100700004FF4405008800021084600F077FEA9F819
:1007100000802088A188884201D3032001E020B115
:10072000052031680872BDE8F0873168062008723C
:10073000084900200968084A89B202EB4101486073
:10074000A9F80080EFE700004000002050000020E2
:100750004E000020505C0040006000402DE9F04158
:100760005D4C5E4D20680926427800272968062ADC
:100770000FD1027852066FD18078012801D1C96962
:1007800062E0022801D1096A5EE0032864D1496A67
:100790005AE082BB4288002A5ED1C288022A5BD11D
:1007A0000279002A58D10278530603D183880BB905
:1007B0004B4949E002F07F02012A0AD18A69407957
:1007C00000219047002847D12068807A0028EFD187
:1007D00042E0022A40D1417901F00F0001F070029D
:1007E0000B06404901EB8001D1F8001C04D5C1F390
:1007F0000111090103E00AE0C1F3013109033A4B99
:100800001B78834228D93ABB0029D1D124E0082A99
:1008100004D1007840061FD1344915E00A2A1BD1C3
:10082000027802F07F02012A16D1827AA2B14288B0
:1008300092B9027982B9C288012A0DD18A694079B8
:100840000021904740B92A4931B12068478281612F
:100850000020884700200AE029682068096940785C
:100860008847032803D120680672BDE8F08121681B
:100870000A8AA2F57F43FF3B01D10E72F5E70228F9
:1008800000D012B908200872EFE7087800061CD5DE
:10089000C888824201D908820FE00ED22868154B21
:1008A00090F82C00824201D21F7006E0B2FBF0F4F7
:1008B00000FB142008B901201870286890F82C005B
:1008C0008882BDE8F041FFF799BE032008720A490B
:1008D00000030880C9E70000400000204400002019
:1008E000B518000800500040180100204918000801
:1008F0008D1800083A0000204E0000202DE9F0413C
:10090000012000F03DF94006224C4FF0010005D5D2
:1009100000F040F9208082B2582105E000F04AF949
:10092000208082B24FF48C711B4800F019FB01212A
:10093000084600F08BF82088184980086080A0469F
:10094000002041F6FF760A88134D154B154F648839
:1009500011E01988B14202D2491C89B200E000219D
:1009600091420CD0198055F82010B3F800C0401CFB
:1009700047F82C1080B2A042EBD3BDE8F0810A48C2
:10098000007808B9FFF7DCFDD8F80800401CC8F86B
:100990000800F2E76C0000202882002016000020EA
:1009A00018000020440100201400002010B502208F
:1009B00000F020F901460322034801F0F1F9BDE8F7
:1009C0001040022000F03EBD700000200149086088
:1009D000704700001404014030B51B4A8179036858
:1009E00059B311460C689C430C604B680468A343E0
:1009F0004B600479A3181C6805682C431C608B6845
:100A00000468A3438B60CB680468A343CB6043793D
:100A1000A1F58061102B0AD101F581610A68036894
:100A20001A430A604A68006802434A6030BD991858
:100A30000A68006802430A6030BD0079104401680A
:100A40009943016030BD0000000401400C4B48F6A2
:100A50008F7203EB8000012906D1D0F8001C89B207
:100A6000114041F0400107E0022907D1D0F8001CF5
:100A700089B2114041F48041C0F8001C7047000069
:100A800000500040F0B5CC78002204F00F03E406DB
:100A900001D58C7823430C884FF00F0C14F0FF0F16
:100AA0004FF0010E1AD006680D880EFA02F42540A8
:100AB000A5420FD195000CFA05F726EA070703FABD
:100AC00005F6CD783E43282D01D1446102E0482D42
:100AD00000D10461521C082AE6D306600A88FF2A66
:100AE0001DD94668002202F108050EFA05F40D88AA
:100AF0002540A5420FD195000CFA05F726EA070715
:100B000003FA05F6CD783E43282D00D14461CD7817
:100B1000482D00D10461521C082AE4D34660F0BD80
:100B2000F0B5144C002801DAE36900E06368450D74
:100B30002E0185B2C0F30157B540C0F30342032F25
:100B400006D123F07062636823F07063636008E08D
:100B5000C60203D503269640B34300E0AB4343F0FF
:100B6000706201B12A43002801DAE261F0BD6260DF
:100B7000F0BD000000000140416170470161704715
:100B8000034901EB8000D0F8000C80B270470000F0
:100B9000005000400549096889B201EBC0000449D2
:100BA00001EB40004068C0F309007047505C004012
:100BB000006000400549096889B201EBC0000449A2
:100BC00001EB4000C068C0F309007047505C004072
:100BD000006000400549096889B201EBC000044982
:100BE00001EB4000806880B270470000505C00401C
:100BF000006000400449096889B201EBC000034964
:100C000051F8100080B27047505C00400060004016
:100C100010B50D480EC8002915D00C480C0A81707B
:100C200004710C0C8471090E01728272110A017335
:100C3000110C8173110E01748374190A0175190C5A
:100C40008175190E017610BDE8F7FF1F52000020D4
:100C500008B54FF43040ADF8000003208DF80200D5
:100C600018208DF8030069460148FFF70BFF08BD07
:100C7000000C01400029818B02D041F4806101E029
:100C800021F4806181837047F0B505460C4602204F
:100C90000021AA8B85B001264FF240031A40AA8397
:100CA0002884AF8BA268022A20D0A08800B1022637
:100CB000684600F0D5F9E1880098B1F5007F01D1D0
:100CC000000A02E07101B0FBF1F000EB8000A168C6
:100CD0004000B0FBF1F0401D80B20A21B0FBF1F002
:100CE00000F00101401AC0F34F000902821EFE2AE3
:100CF00001D302200021E288084302432A8420888D
:100D00006188A2890843A18811430843384340F40D
:100D10000060A88305B0F0BD002101804180818082
:100D2000C1800222826081817047000010B5134C9F
:100D30002068017A022901D0042904D1FFF75EFC62
:100D40002068007A13E0062910D14178052909D1DD
:100D50000178490606D1C07800F058FA08480068C2
:100D6000006A80470748006880688047082021683B
:100D70000872BDE8104000F001B9000040000020FA
:100D8000480000204400002008B50121042000F0A4
:100D90004FF944F20100ADF8000010208DF8030077
:100DA00003208DF8020069460148FFF76BFE08BD7D
:100DB0000008014028B904480068C1880182002069
:100DC000704702487047000040000020B400002037
:100DD00070474FF4A06000F02FB870B50F24C278B0
:100DE00001784FF0E0230126E2B1D3F80C2D19442D
:100DF00002F4E062C2F5E062120AC2F10405D440D6
:100E00004278AA408578254015432A0181F80024BC
:100E1000007800F01F018E40400903EB8000C0F80D
:100E2000006170BD01F01F008640480903EB80009F
:100E3000C0F8806170BD00000249084302490860A3
:100E4000704700000000FA050CED00E070B5304D71
:100E50002868017844784A0628D1092C02D100F08C
:100E600071FD37E0052C09D1C1787F293ED8817802
:100E700000293BD18188B9BB807A36E0032C0AD1A6
:100E8000C178012927D1818829BB407A800622D5E3
:100E900000F074FD1EE0012C1DD1C17801291AD18A
:100EA0008188C1B9407A800615D50CE001F07F0039
:100EB000012804D10B2C0ED100F0B4FD0AE0022869
:100EC00009D1012C02D100F045FC03E0032C02D132
:100ED00000F066FD60B10F4800684169E0B28847E4
:100EE000032802D109200FE000E008B108200BE040
:100EF000094A062012680021084B92B203EB420215
:100F00005160074A302111802968087270BD0000C5
:100F10004000002044000020505C00400060004081
:100F20005000002010B50C4C2068007A032801D036
:100F3000052804D1FFF7BEFB2068007A06E00728E9
:100F400003D106480068C0688047082021680872FD
:100F5000BDE8104000F012B840000020440000201E
:100F6000054B521C520803EB410104D008C920F87C
:100F7000023B521EFAD170470060004010B50B488A
:100F800090F82C10002000F0E3F909480068017A7D
:100F9000082905D1074A48021080074A102010800E
:100FA0000120092900D0002010BD0000C800002049
:100FB000400000204E0000205000002010B501200D
:100FC00000F06CFE0648012101600021054A016025
:100FD00041604FF4E05111800160002010BD00001D
:100FE000405C00404C000020044A0029516901D0B7
:100FF000014300E08143516170470000001002404E
:10100000044A0029D16901D0014300E08143D16144
:101010007047000000100240044A0029116901D005
:10102000014300E08143116170470000001002405D
:10103000044A0029916901D0014300E08143916194
:101040007047000000100240044A0029D16801D016
:10105000014300E08143D16070470000001002406E
:1010600010B5234A5168234B11F00C0103D0042919
:1010700003D0082903D0036016E01F4913E051682C
:10108000536801F470114FF0020413F4803F04EB35
:10109000914101D1194B05E053689B0301D5184BD1
:1010A00000E0154B594301605168164B01F0F00107
:1010B00009095C5C0168E1404160546804F4E06443
:1010C000240A1C5D21FA04F48460546804F460541A
:1010D000E40A1B5DD940C16052680A4B02F44042E9
:1010E000920B1B1F9A5CB1FBF2F1016110BD000075
:1010F0000010024000127A00001BB70000093D00FA
:10110000808D5B002A0000200149086070470000C4
:10111000D800424270B51C481C49008809888842A2
:1011200001D9401A03E041F6FF72511A084484B213
:1011300017484FF48055007818B9AC4201D3FFF737
:10114000FFF941F2FD7213480B21944203D9332277
:101150000270032208E0AC4203D36622027006222A
:1011600002E0992202700922427081700220FFF78A
:1011700041FD01460322074800F012FEBDE8704021
:10118000022000F05FB900001800002016000020C7
:101190001400002070000020002A828801D00A4339
:1011A00000E08A4382807047114910B588420AD115
:1011B000841401212046FFF747FF2046BDE8104078
:1011C0000021FFF741BF0B49884202D101210414DD
:1011D00004E0094988420AD10121C4132046FFF7DF
:1011E0001BFF2046BDE810400021FFF715BF10BDD2
:1011F0000030014000380040003C0040024920F02F
:101200000700086070470000505C0040F0B50C49D2
:101210000C4E0D78002148F68F770AE0CAB206EB33
:101220008203D3F8004CA4B23C401443C3F8004CF2
:10123000491CA942F2D340F08000C6F84C0CF0BD26
:10124000180100200050004030B521F00104094988
:101250000B6822F001029BB203EBC005064B43F87A
:101260001540096889B201EBC00003EB40008260C1
:1012700030BD0000505C0040006000402DE9F041AE
:10128000294B012933D1D3F8501C984689B2274BFA
:1012900001EBC00103EB4105530951084C1CA3F1BC
:1012A000010E4FF400473E2A08D91E465FEAC26C81
:1012B00001D11FFA8EF647EA862605E00E465FEA60
:1012C000C27C00D0A6B2B6022E60D8F8505CADB297
:1012D00005EBC000154D083505EB40003E2A1CD932
:1012E000D10601D11FFA8EF347EA832119E00229C2
:1012F00011D1D3F8501C89B201EBC0040B49091F6E
:1013000001EB44046260D3F8503C9BB203EBC00095
:1013100001EB4000C260BDE8F081D20700D0A1B26D
:1013200089020160F7E700000050004004600040BF
:10133000054A21F00101126892B202EBC000034A93
:1013400002EB400081607047505C0040006000404C
:101350000D4A12683E2992B202EBC0000B4A02EB22
:10136000400209D94809C90601D1401E80B24FF494
:10137000004141EA802005E04808C90701D0401C2F
:1013800080B2800210607047505C00400C600040EA
:10139000094A02EB8002D2F8000C4BF68F7380B240
:1013A0001840CB0401D580F48050890401D580F425
:1013B0000050C2F8000C704700500040064901EB95
:1013C0008000D0F8001C4BF68F7289B2114081F476
:1013D0004051C0F8001C704700500040054A21F001
:1013E0000101126892B202EBC000034A42F81010E9
:1013F00070470000505C004000600040044A1268E2
:1014000092B202EBC000034A02EB40004160704719
:10141000505C004000600040094A02EB8002D2F8B4
:10142000000C48F6BF7380B21840CB0601D580F09F
:101430001000890601D580F02000C2F8000C70472A
:1014400000500040064901EB8000D0F8001C48F62F
:10145000BF7289B2114081F03001C0F8001C7047A2
:1014600000500040064A02EB8000D0F8002C48F6FD
:101470008F1392B21A400A43C0F8002C7047000044
:1014800000500040224900200A6842F480320A607D
:101490004FF4A0630A6800F1010012F4003F01D18B
:1014A0009842F7D10868800330D51A48026842F0A4
:1014B00010020260026822F003020260026842F039
:1014C000020202604868486048684860486840F422
:1014D00080604860486820F47C104860486840F4A8
:1014E00088104860086840F08070086008688001D3
:1014F000FCD5486820F003004860486840F00200CE
:1015000048604868C0F381000228FAD170470000A3
:10151000001002400020024010B50020FFF7F4FD4B
:101520000121BDE81040C805FFF76ABD70B5174836
:101530000068184D81B2164800EB4101896889B2F4
:1015400000EB41042868017A092911D02178017043
:1015500014F8011F4170641C6088FEF7ABFE296817
:101560004880E088FEF7A6FE296888806089C880E8
:10157000286801210172C08810B9FFF767FC01E0FB
:10158000FFF7ECF8BDE87040FFF7F8BC505C004096
:10159000006000404000002000B5812801D00128F3
:1015A0000AD1074805490068816100214182084647
:1015B000FFF700FC002000BD022000BDB50D0008B3
:1015C00040000020014900F053B90000C000002095
:1015D000014900F04DB90000B80000200549096834
:1015E000C978042901D900207047034A02EBC101E0
:1015F00000F03EB940000020F8000020012901D889
:10160000012801D90220704700207047022070474E
:1016100010B534480021006881723349C97941729C
:101620000020FFF7EBFD4FF400710020FFF71AFFD9
:1016300020210020FFF7F0FE18210020FFF778FEA0
:101640002A4890F82C100020FFF782FE3821002055
:10165000FFF7C4FE0020FEF75BFF0020FFF7AEFEA1
:101660004FF4806421460120FFF7FCFE4FF48C729A
:1016700058210120FFF7E8FD0121C0220846FFF7AD
:10168000FDFD0120FEF71CFF0120FEF72DFF0120CC
:1016900000F020FA4FF440510120FFF779FE0021BD
:1016A0000120FFF7B9FE21460220FFF7DBFE4FF4D1
:1016B000EC710220FFF792FE03210220FFF79EFE4D
:1016C00000210220FFF764FE20210220FFF7A4FE84
:1016D0000020FFF773FE0020FFF798FD044901206A
:1016E000086010BD4000002006200008C80000204F
:1016F000400100200348807A002802D002490520DA
:10170000086070470C82002040010020014904203D
:1017100008607047400100207047704710B5FFF720
:1017200077FA0848002400688472FFF747FC0648EF
:101730004460064A4FF40641118001600448046089
:1017400010BD000040000020405C00404C00002024
:101750004001002070B537480168087810F07F001C
:1017600004D1487A00F0DF0048725CE002285ED1C4
:10177000488800285BD10879002858D14A792F4C35
:10178000130622F08000002B04EB80032A4DD3F8CF
:10179000003C03DAC3F301131B0102E0C3F301337E
:1017A0001B032E78864242D9F3B3897AE1B311063E
:1017B00010D504EB8001D1F8001CC1F301110129FF
:1017C0002DD1C0B20446FEF78FFE30212046FFF730
:1017D00023FE24E004EB8005D5F8001CC1F30131A1
:1017E00001291CD14BF68F7670B9154890F82C1052
:1017F0000020FFF7ADFDD4F8000C80B2304080F43B
:101800004050C4F8000C0AE0C0B2FEF759FED5F80B
:10181000000C80B2304080F44050C5F8000C0948FC
:1018200000684069804700E001E0002070BD0220B0
:1018300070BD000040000020180100200050004052
:10184000C80000204800002010B5074C20B92168CE
:1018500001200882002010BD04480068006880470D
:1018600020680A3010BD0000400000204800002021
:10187000054A13685A8A20B98888801A188200207D
:1018800070470868104470474000002010B5074CAE
:1018900020B9216801200882002010BD044800689A
:1018A0008068804720680C3010BD00004000002098
:1018B0004800002010B51F49096810B902200882AD
:1018C00035E01D48002202800A78530611D1497A7A
:1018D0008A0603D5027842F002020270490603D557
:1018E000017801F0FE0102E0017841F00101017090
:1018F00018E002F07F02012A01D10F4810BD022A30
:1019000015D14A7902F00F0113060C4A02EB81014E
:10191000D1F8001C02D5C1F3011101E0C1F301317E
:101920000129E1D00648006800698047E5E700200A
:1019300010BD0000400000203C000020005000408E
:101940004800002010B50A480A4A00685278C17859
:1019500091420AD8827842B9828832B981720648A7
:10196000006840688047002010BD022010BD0000C4
:1019700040000020180100204800002010B5064853
:101980000068417A41F02001417204480068C06952
:101990008047002010BD00004000002048000020CB
:1019A00070B51C4802681C48517921F080050B066F
:1019B00000EB8500D0F8003C21F0800403D5C3F390
:1019C00001131B0102E0C3F301331B03134D2D78F8
:1019D000A54204D9548814B90BB1927A0AB90220ED
:1019E00070BD09060029D0F8001C89B205DA48F656
:1019F000BF72114081F0100104E04BF68F7211406C
:101A000081F48051C0F8001C054800688069804757
:101A1000002070BD40000020005000401801002050
:101A20004800002010B50E4C0E4A20681268C1789C
:101A300092694079904721688A7A7AB170B90879B9
:101A400060B9887850B908480068C0688047206845
:101A50004179C172C1780173002010BD022010BD10
:101A60004000002044000020480000204FF0E0210A
:101A70000428086902D140F0040001E020F00400CD
:101A80000861704710B50F48016841F0010101601D
:101A900041680D4A1140416001680C4A11400160E3
:101AA000016821F480210160416821F4FE01416058
:101AB0004FF41F018160FFF7E5FC05494FF000601E
:101AC000086010BD001002400000FFF8FFFFF6FEA6
:101AD00008ED00E0064901EB8000D0F8001C48F654
:101AE0008F7289B2114041F04001C0F8001C70476C
:101AF0000050004070B5154C40F22551204600F0D2
:101B000035F800280ED0204600F0C2F8104AC1B2C5
:101B10001088030406D444044FF0000306D50A29B4
:101B200001D0138070BD40F4004003E00D2903D1C3
:101B300040F48040108070BDC0F30D04054D401C82
:101B400080B229551080C728EBD870BD00380140FD
:101B500024000020448100200029818902D041F422
:101B6000005101E021F400518181704730B501F04E
:101B70001F0201250024C1F3421305FA02F2012BD2
:101B800001D1838904E0022B01D1038A00E0838A1A
:101B90004FEA11210088134205FA01F500EA050019
:101BA00001D000B10124204630BD10B5C1F342136D
:101BB00001F01F040121A140012B01D10C3004E0F0
:101BC000022B01D1103000E01430002A026801D04D
:101BD0000A4300E08A43026010BD000030B50446AD
:101BE000008A85B00D464CF6FF710840E988014334
:101BF0002182A0894EF6F3110840A9882A89114351
:101C00006A8902431143A181A08A4FF6FF4108402F
:101C1000A9890143A1826846FFF722FA1B48844242
:101C200001D1039800E00298A1890904002900EB82
:101C3000C00101EB0010296802DA4FEA410101E01E
:101C40004FEA8101B0FBF1F06422B0FBF2F14FEA00
:101C500001114FEA11136FF018056B4300EB83007D
:101C6000A3891D044FF0320306D503EBC000B0FB7F
:101C7000F2F000F0070005E003EB0010B0FBF2F01B
:101C800000F00F000843208105B030BD003801404E
:101C90008088C0F30800704770470000044A00289D
:101CA0004FF40041104601D0FEF768BFFEF764BF55
:101CB00000080140FEF704BB064805490222016006
:101CC0000A72064A0449C0E9011208680047000088
:101CD0000C82002040000020C80000201C010020D1
:101CE0003EB54FF4A060FFF7A7F84FF480242046DC
:101CF000FEF76CFE082000948DF8050001248DF895
:101D000006406846FEF768FE14208DF808008DF83E
:101D1000094000258DF80A508DF80B4002A8FFF706
:101D20005CF82A208DF808008DF8095002A8FFF70A
:101D300054F83EBD70B5154CD4F8440C144D688071
:101D40006888144E31880840400506D54FF6FF30AC
:101D5000C4F8440C104840688047688831880840BF
:101D6000800508D54FF6FF50C4F8440C2878401C75
:101D70002870FFF7CFF9688831880840000403D540
:101D8000BDE87040FEF7DCBA70BD000000500040B6
:101D9000780000204C000020C8000020FFF7CABFD8
:101DA000084B10B5521C520803EB410109D00378CF
:101DB00010F8014F401C43EA042321F8043B521E53
:101DC000F5D110BD006000407047000010B56FF005
:101DD0000400FFF74BFE0648064900684FF47A728C
:101DE000B0FBF1F00449C0B208705043488010BD08
:101DF0000000002000127A002000002008B5012118
:101E00000846FFF7F1F80D48002181650C4A02668B
:101E10000C4A42660222C26542F29A5282650F2043
:101E20008DF800008DF801108DF8021001208DF85A
:101E300003006846FEF7D1FF08BD00000000024025
:101E40000C380040440100201FB501218803FFF732
:101E5000D7F8104C2046FFF7A7F96846FEF75CFF5D
:101E60006015ADF800000020ADF804004AF64441CA
:101E7000ADF80200ADF806000291ADF80C0069461D
:101E80002046FEF701FF012202212046FFF784F9D8
:101E90001FBD00000038004010B501211D20FFF7D4
:101EA000C7F801210948FEF73BFEFFF78FFFFEF759
:101EB00090FF4FF4E13000F02BF8FEF765FF00F0E3
:101EC00077F8FFF7F9FEFEF731FBFEE7000230007E
:101ED00010B500210A48FEF7CDFE00214FF48040E6
:101EE000FFF78EF8074942F29250886506490020B4
:101EF0000870BDE8104001210448FEF73DBE000017
:101F0000003800400000024014000020000801409A
:101F100070B5054686B0012144F20500FFF788F848
:101F20004FF40070ADF8140003248DF8164018200B
:101F30001D4E8DF8170005A93046FEF7A3FD30159C
:101F4000ADF8140004208DF8170005A93046FEF7FF
:101F500099FD25208DF800008DF801408DF8024094
:101F600001208DF803006846FEF737FF0020ADF82A
:101F70000800ADF80A00ADF80C00ADF810000C2018
:101F80000A4CADF80E00019501A92046FFF726FE88
:101F9000012240F225512046FFF707FE012120468D
:101FA000FFF7DAFD06B070BD0008014000380140BF
:101FB00010B500F009F80020FFF770FEFFF790FE63
:101FC000BDE81040FFF7A8BA08B501210420FFF7CB
:101FD0002FF84FF40040ADF8000003208DF8020008
:101FE00010208DF8030069460148FEF74BFD08BD3F
:101FF0000008014012010002000000208304305755
:1020000000020102030109027600020100C0320948
:102010000400000001010000092401000127000163
:10202000010C240201010100010000000009240646
:102030000201010100000924030301030002000959
:102040000401000001020000090401010201020074
:1020500000072401010101000B240201020210010A
:1020600044AC0009050105C00001008207250100FC
:1020700000000009058211030001040004030904A3
:102080001A037F5EDE5D1F66FC7F3575505BD1797C
:102090006280096750966C51F8531E0341004C0052
:1020A000490045004E00540045004B0020005500FB
:1020B00053004200F0586153D8200008000000206F
:1020C000440100006C0100086C210008440100205C
:1020D00004880000C80100081184A24A0400091203
:1020E00001020304060708096D0204060822091804
:1020F0002661141A03531254124D12331232123144
:10210000021B3013D10D1408AD092A0808E9040B8D
:1021100014FD081829044113F41F33081213062074
:10212000330876131D17140811161B0819081A1BFB
:10213000041399151B080D101AFD081AD1041AC5AD
:10214000041ADD044132201A7C3829F91A80083239
:102150001A1A9A08321E1A521F29104B0301A01A8C
:0C216000F5440916881A0D6841000000C3
:0400000508000131BD
:00000001FF
